{
    "_format": "hh-sol-artifact-1",
    "contractName": "ColorVote",
    "sourceName": "contracts/ColorVote.sol",
    "abi": [
        {
            "inputs": [],
            "stateMutability": "nonpayable",
            "type": "constructor"
        },
        {
            "anonymous": false,
            "inputs": [
                {
                    "indexed": true,
                    "internalType": "address",
                    "name": "voter",
                    "type": "address"
                },
                {
                    "indexed": true,
                    "internalType": "string",
                    "name": "color",
                    "type": "string"
                },
                {
                    "indexed": false,
                    "internalType": "uint256",
                    "name": "amount",
                    "type": "uint256"
                }
            ],
            "name": "UnVote",
            "type": "event"
        },
        {
            "anonymous": false,
            "inputs": [
                {
                    "indexed": true,
                    "internalType": "address",
                    "name": "voter",
                    "type": "address"
                },
                {
                    "indexed": true,
                    "internalType": "string",
                    "name": "color",
                    "type": "string"
                },
                {
                    "indexed": false,
                    "internalType": "uint256",
                    "name": "amount",
                    "type": "uint256"
                }
            ],
            "name": "Vote",
            "type": "event"
        },
        {
            "inputs": [],
            "name": "blueTotal",
            "outputs": [
                {
                    "internalType": "uint256",
                    "name": "",
                    "type": "uint256"
                }
            ],
            "stateMutability": "view",
            "type": "function"
        },
        {
            "inputs": [
                {
                    "internalType": "address",
                    "name": "",
                    "type": "address"
                }
            ],
            "name": "blueVoteAmount",
            "outputs": [
                {
                    "internalType": "uint256",
                    "name": "",
                    "type": "uint256"
                }
            ],
            "stateMutability": "view",
            "type": "function"
        },
        {
            "inputs": [],
            "name": "getUserVote",
            "outputs": [
                {
                    "internalType": "uint256",
                    "name": "",
                    "type": "uint256"
                },
                {
                    "internalType": "uint256",
                    "name": "",
                    "type": "uint256"
                }
            ],
            "stateMutability": "view",
            "type": "function"
        },
        {
            "inputs": [],
            "name": "redTotal",
            "outputs": [
                {
                    "internalType": "uint256",
                    "name": "",
                    "type": "uint256"
                }
            ],
            "stateMutability": "view",
            "type": "function"
        },
        {
            "inputs": [
                {
                    "internalType": "address",
                    "name": "",
                    "type": "address"
                }
            ],
            "name": "redVoteAmount",
            "outputs": [
                {
                    "internalType": "uint256",
                    "name": "",
                    "type": "uint256"
                }
            ],
            "stateMutability": "view",
            "type": "function"
        },
        {
            "inputs": [],
            "name": "voteBlue",
            "outputs": [],
            "stateMutability": "payable",
            "type": "function"
        },
        {
            "inputs": [],
            "name": "voteRed",
            "outputs": [],
            "stateMutability": "payable",
            "type": "function"
        },
        {
            "inputs": [],
            "name": "whoIsWinning",
            "outputs": [
                {
                    "internalType": "string",
                    "name": "",
                    "type": "string"
                }
            ],
            "stateMutability": "view",
            "type": "function"
        },
        {
            "inputs": [
                {
                    "internalType": "uint256",
                    "name": "_total",
                    "type": "uint256"
                },
                {
                    "internalType": "string",
                    "name": "color",
                    "type": "string"
                }
            ],
            "name": "withdrawVote",
            "outputs": [],
            "stateMutability": "nonpayable",
            "type": "function"
        }
    ],
    "bytecode": "0x608060405234801561001057600080fd5b506110aa806100206000396000f3fe6080604052600436106100865760003560e01c806399a2ab641161005957806399a2ab6414610129578063b22a6c8214610152578063cb49206d1461017d578063cf5eeeeb146101a8578063fc973c80146101e557610086565b806310af67ef1461008b5780634f301d47146100c8578063567eecb7146100f4578063637df78a146100fe575b600080fd5b34801561009757600080fd5b506100b260048036038101906100ad9190610a38565b6101ef565b6040516100bf9190610e03565b60405180910390f35b3480156100d457600080fd5b506100dd610207565b6040516100eb929190610e1e565b60405180910390f35b6100fc61029e565b005b34801561010a57600080fd5b506101136103b5565b6040516101209190610e03565b60405180910390f35b34801561013557600080fd5b50610150600480360381019061014b9190610a61565b6103bb565b005b34801561015e57600080fd5b506101676107a2565b6040516101749190610d61565b60405180910390f35b34801561018957600080fd5b50610192610872565b60405161019f9190610e03565b60405180910390f35b3480156101b457600080fd5b506101cf60048036038101906101ca9190610a38565b610878565b6040516101dc9190610e03565b60405180910390f35b6101ed610890565b005b60026020528060005260406000206000915090505481565b6000806000600260003373ffffffffffffffffffffffffffffffffffffffff1673ffffffffffffffffffffffffffffffffffffffff1681526020019081526020016000205490506000600360003373ffffffffffffffffffffffffffffffffffffffff1673ffffffffffffffffffffffffffffffffffffffff16815260200190815260200160002054905081819350935050509091565b60003414156102e2576040517f08c379a00000000000000000000000000000000000000000000000000000000081526004016102d990610d83565b60405180910390fd5b34600360003373ffffffffffffffffffffffffffffffffffffffff1673ffffffffffffffffffffffffffffffffffffffff16815260200190815260200160002060008282546103319190610ecf565b92505081905550346001600082825461034a9190610ecf565b9250508190555060405161035d90610d37565b60405180910390203373ffffffffffffffffffffffffffffffffffffffff167ff872c9dd43e62509c7276e545b258673a25292dbeb9756e834227c8a83818655346040516103ab9190610e03565b60405180910390a3565b60005481565b6040516020016103ca90610d4c565b60405160208183030381529060405280519060200120816040516020016103f19190610d20565b60405160208183030381529060405280519060200120141561056457600260003373ffffffffffffffffffffffffffffffffffffffff1673ffffffffffffffffffffffffffffffffffffffff1681526020019081526020016000205482111561048f576040517f08c379a000000000000000000000000000000000000000000000000000000000815260040161048690610de3565b60405180910390fd5b81600260003373ffffffffffffffffffffffffffffffffffffffff1673ffffffffffffffffffffffffffffffffffffffff16815260200190815260200160002060008282546104de9190610f25565b92505081905550816000808282546104f69190610f25565b9250508190555060405161050990610d4c565b60405180910390203373ffffffffffffffffffffffffffffffffffffffff167f39408ff874773a79bc34cc9082e11333450bc49cea20f798b48ea9a1ad5031e2846040516105579190610e03565b60405180910390a3610751565b60405160200161057390610d37565b604051602081830303815290604052805190602001208160405160200161059a9190610d20565b60405160208183030381529060405280519060200120141561070e57600360003373ffffffffffffffffffffffffffffffffffffffff1673ffffffffffffffffffffffffffffffffffffffff16815260200190815260200160002054821115610638576040517f08c379a000000000000000000000000000000000000000000000000000000000815260040161062f90610da3565b60405180910390fd5b81600360003373ffffffffffffffffffffffffffffffffffffffff1673ffffffffffffffffffffffffffffffffffffffff16815260200190815260200160002060008282546106879190610f25565b9250508190555081600160008282546106a09190610f25565b925050819055506040516106b390610d37565b60405180910390203373ffffffffffffffffffffffffffffffffffffffff167f39408ff874773a79bc34cc9082e11333450bc49cea20f798b48ea9a1ad5031e2846040516107019190610e03565b60405180910390a3610750565b600061074f576040517f08c379a000000000000000000000000000000000000000000000000000000000815260040161074690610dc3565b60405180910390fd5b5b5b60003390508073ffffffffffffffffffffffffffffffffffffffff166108fc849081150290604051600060405180830381858888f1935050505015801561079c573d6000803e3d6000fd5b50505050565b606060015460005411156107ed576040518060400160405280600481526020017f626c756500000000000000000000000000000000000000000000000000000000815250905061086f565b6000546001541115610836576040518060400160405280600381526020017f7265640000000000000000000000000000000000000000000000000000000000815250905061086f565b6040518060400160405280600481526020017f647261770000000000000000000000000000000000000000000000000000000081525090505b90565b60015481565b60036020528060005260406000206000915090505481565b60003414156108d4576040517f08c379a00000000000000000000000000000000000000000000000000000000081526004016108cb90610d83565b60405180910390fd5b34600260003373ffffffffffffffffffffffffffffffffffffffff1673ffffffffffffffffffffffffffffffffffffffff16815260200190815260200160002060008282546109239190610ecf565b925050819055503460008082825461093b9190610ecf565b9250508190555060405161094e90610d4c565b60405180910390203373ffffffffffffffffffffffffffffffffffffffff167ff872c9dd43e62509c7276e545b258673a25292dbeb9756e834227c8a838186553460405161099c9190610e03565b60405180910390a3565b60006109b96109b484610e78565b610e47565b9050828152602081018484840111156109d157600080fd5b6109dc848285610f95565b509392505050565b6000813590506109f381611046565b92915050565b600082601f830112610a0a57600080fd5b8135610a1a8482602086016109a6565b91505092915050565b600081359050610a328161105d565b92915050565b600060208284031215610a4a57600080fd5b6000610a58848285016109e4565b91505092915050565b60008060408385031215610a7457600080fd5b6000610a8285828601610a23565b925050602083013567ffffffffffffffff811115610a9f57600080fd5b610aab858286016109f9565b9150509250929050565b6000610ac082610ea8565b610aca8185610eb3565b9350610ada818560208601610fa4565b610ae381611035565b840191505092915050565b6000610af982610ea8565b610b038185610ec4565b9350610b13818560208601610fa4565b80840191505092915050565b6000610b2c602983610eb3565b91507f596f75206e65656420746f206465706f73697420736f6d6520616d6f756e742060008301527f6f66206d6f6e65792100000000000000000000000000000000000000000000006020830152604082019050919050565b6000610b92603383610eb3565b91507f596f75206861766520696e7375666669656e742066756e647320746f2077697460008301527f68647261772066726f6d2052656420566f7465000000000000000000000000006020830152604082019050919050565b6000610bf8600d83610eb3565b91507f496e76616c696420636f6c6f72000000000000000000000000000000000000006000830152602082019050919050565b6000610c38600383610ec4565b91507f72656400000000000000000000000000000000000000000000000000000000006000830152600382019050919050565b6000610c78603483610eb3565b91507f596f75206861766520696e7375666669656e742066756e647320746f2077697460008301527f68647261772066726f6d20426c756520566f74650000000000000000000000006020830152604082019050919050565b6000610cde600483610ec4565b91507f626c7565000000000000000000000000000000000000000000000000000000006000830152600482019050919050565b610d1a81610f8b565b82525050565b6000610d2c8284610aee565b915081905092915050565b6000610d4282610c2b565b9150819050919050565b6000610d5782610cd1565b9150819050919050565b60006020820190508181036000830152610d7b8184610ab5565b905092915050565b60006020820190508181036000830152610d9c81610b1f565b9050919050565b60006020820190508181036000830152610dbc81610b85565b9050919050565b60006020820190508181036000830152610ddc81610beb565b9050919050565b60006020820190508181036000830152610dfc81610c6b565b9050919050565b6000602082019050610e186000830184610d11565b92915050565b6000604082019050610e336000830185610d11565b610e406020830184610d11565b9392505050565b6000604051905081810181811067ffffffffffffffff82111715610e6e57610e6d611006565b5b8060405250919050565b600067ffffffffffffffff821115610e9357610e92611006565b5b601f19601f8301169050602081019050919050565b600081519050919050565b600082825260208201905092915050565b600081905092915050565b6000610eda82610f8b565b9150610ee583610f8b565b9250827fffffffffffffffffffffffffffffffffffffffffffffffffffffffffffffffff03821115610f1a57610f19610fd7565b5b828201905092915050565b6000610f3082610f8b565b9150610f3b83610f8b565b925082821015610f4e57610f4d610fd7565b5b828203905092915050565b6000610f6482610f6b565b9050919050565b600073ffffffffffffffffffffffffffffffffffffffff82169050919050565b6000819050919050565b82818337600083830152505050565b60005b83811015610fc2578082015181840152602081019050610fa7565b83811115610fd1576000848401525b50505050565b7f4e487b7100000000000000000000000000000000000000000000000000000000600052601160045260246000fd5b7f4e487b7100000000000000000000000000000000000000000000000000000000600052604160045260246000fd5b6000601f19601f8301169050919050565b61104f81610f59565b811461105a57600080fd5b50565b61106681610f8b565b811461107157600080fd5b5056fea264697066735822122004d0834701fc97367c0546cc87cdfb9b3ecb272f267d10fe846c851fd06aba4364736f6c63430008000033",
    "linkReferences": {},
    "deployedLinkReferences": {}
}